{
  "_format": "hh-sol-artifact-1",
  "contractName": "Bank",
  "sourceName": "contracts/Bank.sol",
  "abi": [
    {
      "inputs": [
        {
          "internalType": "uint256",
          "name": "balance",
          "type": "uint256"
        },
        {
          "internalType": "uint256",
          "name": "withdrawAmount",
          "type": "uint256"
        }
      ],
      "name": "InsufficientBalance",
      "type": "error"
    },
    {
      "anonymous": false,
      "inputs": [
        {
          "indexed": false,
          "internalType": "string",
          "name": "value",
          "type": "string"
        }
      ],
      "name": "NameUpdate",
      "type": "event"
    },
    {
      "anonymous": false,
      "inputs": [
        {
          "indexed": false,
          "internalType": "uint256",
          "name": "amount",
          "type": "uint256"
        }
      ],
      "name": "Transfer",
      "type": "event"
    },
    {
      "inputs": [],
      "name": "getAccountName",
      "outputs": [
        {
          "internalType": "string",
          "name": "",
          "type": "string"
        }
      ],
      "stateMutability": "view",
      "type": "function"
    },
    {
      "inputs": [],
      "name": "getBalance",
      "outputs": [
        {
          "internalType": "uint256",
          "name": "",
          "type": "uint256"
        }
      ],
      "stateMutability": "view",
      "type": "function"
    },
    {
      "inputs": [
        {
          "internalType": "string",
          "name": "_name",
          "type": "string"
        }
      ],
      "name": "setAccountName",
      "outputs": [],
      "stateMutability": "nonpayable",
      "type": "function"
    },
    {
      "inputs": [
        {
          "internalType": "address payable",
          "name": "_to",
          "type": "address"
        }
      ],
      "name": "transferFunds",
      "outputs": [],
      "stateMutability": "payable",
      "type": "function"
    }
  ],
  "bytecode": "0x608060405234801561001057600080fd5b50610c8f806100206000396000f3fe60806040526004361061003f5760003560e01c806312065fe0146100445780632e95adad1461006f578063638dc2b514610098578063e39ff19f146100c3575b600080fd5b34801561005057600080fd5b506100596100df565b6040516100669190610469565b60405180910390f35b34801561007b57600080fd5b50610096600480360381019061009191906105de565b6100fe565b005b3480156100a457600080fd5b506100ad61028c565b6040516100ba91906106a6565b60405180910390f35b6100dd60048036038101906100d89190610726565b61035a565b005b60003373ffffffffffffffffffffffffffffffffffffffff1631905090565b8060405160200161010f919061078f565b604051602081830303815290604052805190602001206000803373ffffffffffffffffffffffffffffffffffffffff1673ffffffffffffffffffffffffffffffffffffffff168152602001908152602001600020604051602001610173919061089e565b60405160208183030381529060405280519060200120036101c9576040517f08c379a00000000000000000000000000000000000000000000000000000000081526004016101c090610901565b60405180910390fd5b806000803373ffffffffffffffffffffffffffffffffffffffff1673ffffffffffffffffffffffffffffffffffffffff16815260200190815260200160002090816102149190610ab8565b507fba447370ea182903b32af1af1c0da2e966ba287288b29bf2b944259d335a9a8b6000803373ffffffffffffffffffffffffffffffffffffffff1673ffffffffffffffffffffffffffffffffffffffff1681526020019081526020016000206040516102819190610c0e565b60405180910390a150565b60606000803373ffffffffffffffffffffffffffffffffffffffff1673ffffffffffffffffffffffffffffffffffffffff16815260200190815260200160002080546102d7906107d5565b80601f0160208091040260200160405190810160405280929190818152602001828054610303906107d5565b80156103505780601f1061032557610100808354040283529160200191610350565b820191906000526020600020905b81548152906001019060200180831161033357829003601f168201915b5050505050905090565b8073ffffffffffffffffffffffffffffffffffffffff166108fc349081150290604051600060405180830381858888f193505050501580156103a0573d6000803e3d6000fd5b50343373ffffffffffffffffffffffffffffffffffffffff16311015610416573373ffffffffffffffffffffffffffffffffffffffff1631346040517fcf47918100000000000000000000000000000000000000000000000000000000815260040161040d929190610c30565b60405180910390fd5b7f248dd4076d0a389d795107efafd558ce7f31ae37b441ccb9a599c60868f480d5346040516104459190610469565b60405180910390a150565b6000819050919050565b61046381610450565b82525050565b600060208201905061047e600083018461045a565b92915050565b6000604051905090565b600080fd5b600080fd5b600080fd5b600080fd5b6000601f19601f8301169050919050565b7f4e487b7100000000000000000000000000000000000000000000000000000000600052604160045260246000fd5b6104eb826104a2565b810181811067ffffffffffffffff8211171561050a576105096104b3565b5b80604052505050565b600061051d610484565b905061052982826104e2565b919050565b600067ffffffffffffffff821115610549576105486104b3565b5b610552826104a2565b9050602081019050919050565b82818337600083830152505050565b600061058161057c8461052e565b610513565b90508281526020810184848401111561059d5761059c61049d565b5b6105a884828561055f565b509392505050565b600082601f8301126105c5576105c4610498565b5b81356105d584826020860161056e565b91505092915050565b6000602082840312156105f4576105f361048e565b5b600082013567ffffffffffffffff81111561061257610611610493565b5b61061e848285016105b0565b91505092915050565b600081519050919050565b600082825260208201905092915050565b60005b83811015610661578082015181840152602081019050610646565b60008484015250505050565b600061067882610627565b6106828185610632565b9350610692818560208601610643565b61069b816104a2565b840191505092915050565b600060208201905081810360008301526106c0818461066d565b905092915050565b600073ffffffffffffffffffffffffffffffffffffffff82169050919050565b60006106f3826106c8565b9050919050565b610703816106e8565b811461070e57600080fd5b50565b600081359050610720816106fa565b92915050565b60006020828403121561073c5761073b61048e565b5b600061074a84828501610711565b91505092915050565b600081905092915050565b600061076982610627565b6107738185610753565b9350610783818560208601610643565b80840191505092915050565b600061079b828461075e565b915081905092915050565b7f4e487b7100000000000000000000000000000000000000000000000000000000600052602260045260246000fd5b600060028204905060018216806107ed57607f821691505b602082108103610800576107ff6107a6565b5b50919050565b60008190508160005260206000209050919050565b60008154610828816107d5565b6108328186610753565b9450600182166000811461084d576001811461086257610895565b60ff1983168652811515820286019350610895565b61086b85610806565b60005b8381101561088d5781548189015260018201915060208101905061086e565b838801955050505b50505092915050565b60006108aa828461081b565b915081905092915050565b7f4e6577206e616d652069732073616d65206173206f6c64206e616d6500000000600082015250565b60006108eb601c83610632565b91506108f6826108b5565b602082019050919050565b6000602082019050818103600083015261091a816108de565b9050919050565b60006020601f8301049050919050565b600082821b905092915050565b60006008830261096e7fffffffffffffffffffffffffffffffffffffffffffffffffffffffffffffffff82610931565b6109788683610931565b95508019841693508086168417925050509392505050565b6000819050919050565b60006109b56109b06109ab84610450565b610990565b610450565b9050919050565b6000819050919050565b6109cf8361099a565b6109e36109db826109bc565b84845461093e565b825550505050565b600090565b6109f86109eb565b610a038184846109c6565b505050565b5b81811015610a2757610a1c6000826109f0565b600181019050610a09565b5050565b601f821115610a6c57610a3d81610806565b610a4684610921565b81016020851015610a55578190505b610a69610a6185610921565b830182610a08565b50505b505050565b600082821c905092915050565b6000610a8f60001984600802610a71565b1980831691505092915050565b6000610aa88383610a7e565b9150826002028217905092915050565b610ac182610627565b67ffffffffffffffff811115610ada57610ad96104b3565b5b610ae482546107d5565b610aef828285610a2b565b600060209050601f831160018114610b225760008415610b10578287015190505b610b1a8582610a9c565b865550610b82565b601f198416610b3086610806565b60005b82811015610b5857848901518255600182019150602085019450602081019050610b33565b86831015610b755784890151610b71601f891682610a7e565b8355505b6001600288020188555050505b505050505050565b60008154610b97816107d5565b610ba18186610632565b94506001821660008114610bbc5760018114610bd257610c05565b60ff198316865281151560200286019350610c05565b610bdb85610806565b60005b83811015610bfd57815481890152600182019150602081019050610bde565b808801955050505b50505092915050565b60006020820190508181036000830152610c288184610b8a565b905092915050565b6000604082019050610c45600083018561045a565b610c52602083018461045a565b939250505056fea2646970667358221220afc07ecb9611289f3dfd117cafc60366070fb5b5e25ab0844acae61b35066a5b64736f6c63430008120033",
  "linkReferences": {},
  "deployedLinkReferences": {}
}